:020000040000FA
:0410000088EF0CF079
:08100800056ED8CF06F0E0CF21
:1010100007F00001E9CF0DF0EACF08F0E1CF09F0C9
:10102000E2CF0AF0D9CF0BF0DACF0CF0F3CF14F007
:10103000F4CF15F0FACF16F000C00FF001C010F099
:1010400002C011F003C012F004C013F0A0A02CEFF6
:1010500008F0A1B091EF08F00FC000F010C001F04F
:1010600011C002F012C003F013C004F00E8E0DC0C8
:10107000E9FF08C0EAFF09C0E1FF0AC0E2FF0BC0B8
:10108000D9FF0CC0DAFF14C0F3FF15C0F4FF16C07F
:10109000FAFF055007C0E0FF06C0D8FF1000F2CFEE
:1010A0000EF0F29EF76AB80FF66E100EF7220900E6
:1010B000F5500EBEF28E120070727565626120638B
:1010C0006F6D756E69636163696F6E0D0A00F2CFB3
:1010D0000EF0F29EF76AE80FF66E100EF722090086
:1010E000F5500EBEF28E12000D008E0E006E43C043
:1010F00001F042C002F0036A015209E102C001F0AE
:10110000026A080E005E015202E1006A08D0D8901F
:1011100001BE04D0023601360006F9D7019EA6EFC3
:1011200008F094908B7018B40AD0CF6ACE6AB70ECC
:10113000B1169386BA6A040EBA6E188419D0CE50CE
:10114000CFCF03F0426ECFCF43F0CFD703C01EF016
:1011500002C01DF001C01CF000C01BF0B70EB1169C
:101160009386BA6A050EBA6E189418B001D018802A
:10117000A1902CEF08F0EA6A290EE96EEF500EE01C
:101180000F0E016E006A002EFED7012EFBD78F0EC8
:10119000006E002EFED70000EF2EF2D7000C285074
:1011A000D8B4A5D0346E2C50D8B4A1D0345E05E3A9
:1011B0007F0E3426D8B09BD006D0810E345ED8A0E6
:1011C00096D0D8B494D034C000F0016A026A036AA1
:1011D000336A29C032F0328E2AC031F02BC030F091
:1011E000190E346E2F50305E0DE2010E315E0AE2B0
:1011F000325E08E2335E06E2332A322A312A2F5069
:10120000302628D02E50315E12E2010E325E0FE2FF
:10121000335E0DE2332A322A2E5031262F503026EB
:1012200019E3312A17E1322A15E1332A13D02D5060
:101230008009325E0EE2010E335E0BE2332A2D503E
:10124000800932262E503126E9E3322AE7E1332A9B
:10125000E5D70380342E01D00BD0D890303631360C
:1012600032363336D8900336023601363536BAD7A1
:1012700035A006D0D890013202320332353202D086
:10128000000635E035BE1ED0D890303631363236C5
:1012900033362F50305E07E2010E315E04E2325EDB
:1012A00002E2335E1AE32E50315E05E2010E325E39
:1012B00002E2335E12E32D508009325E03E2010E3A
:1012C000335E0BE3032A09E1022A07E1012A05E163
:1012D000002A0DE001320232033229C034F02D50D1
:1012E000341A34AE02D0018E06D0019E04D0006ABA
:1012F000016A026A036AF8EF0CF03550D8B471D075
:10130000006E3950D8B46DD0002604E3810E00265B
:1013100068E204D07F0E005E64E363E036C03DF017
:101320003A503D1A368E3A8E38503C02F4CF3FF098
:1013300037503B02F4CF03F0F3CF3EF03C02F350C2
:101340003F26F4503E22000E032238503B02F35059
:101350003F26F4503E22000E026A0322022236503B
:101360003C02F3503E26F4500322000E0222365077
:101370003B02F3500326F4500222000E016A0122C0
:1013800038503A02F3503E26F4500322000E022257
:10139000012237503A02F3500326F4500222000E85
:1013A000012236503A02F3500226F4500122002A5C
:1013B00001BE05D03E360336023601360006000E69
:1013C0003EAE0AD0032A02220122015005E102505A
:1013D00003E1035001E1002A3DBE018E3DAE019EB6
:1013E00004D0006A016A026A036A000C800ED8B257
:1013F0002D1A326A336A29C031F02D50311A285023
:10140000D8B4DCD0306E006E2C50D8B4E0D0305E52
:10141000D8B481D03DE32DC036F0368E2EC035F0E5
:101420002FC034F0336AD89036323532343233320A
:10143000302EF8D731AE03D03280DDD032903090EC
:101440003288EA6A2B0EE96EE9D0329831BE0AD0B2
:1014500030A013D03632353234323332002AD8B489
:10146000C5D00BD036BE0CD0D89033363436353696
:1014700036360006D8B4BAD0F5D7328C6BD0329C51
:1014800029C031F029AE02D0368EA9D0369EA7D021
:101490002CC030F02CC000F02850305E29C036F04F
:1014A000368E2AC035F02BC034F0336AD8903632ED
:1014B000353234323332302EF8D731AE03D0328267
:1014C0009AD032923090328AEA6A2F0EE96EA6D014
:1014D000329A31BE0AD030A013D03632353234328F
:1014E0003332002AD8B482D00BD036BE0CD0D8907C
:1014F00033363436353636360006D8B477D0F5D79D
:10150000328E28D0329E2DC031F02DAE02D0368ED4
:1015100066D0369E64D02DC036F0368E2EC035F0A3
:101520002FC034F031AE04D0369E328464D0329471
:10153000336A3090EA6A2B0EE96E70D031BE1CD04F
:1015400029C031F030A006D0363235323432333251
:10155000002A4CE033AE0BD0342A09E1352A07E1EA
:10156000362A05E1363235323432002A3FE032BCC9
:1015700086D732BEC7D71CD0800E361A36AE04D0FE
:101580003AD02DC031F00AD029C031F0365206E1F0
:10159000355204E1345202E1006A21D036BE08D04F
:1015A000D8903336343635363636002EF7D71ED03F
:1015B00031AE02D0368E13D0369E11D02CC000F042
:1015C0002DC036F02EC035F02FC034F008D028C022
:1015D00000F029C036F02AC035F02BC034F036C0F8
:1015E00001F035C002F034C003F034D0006A016A63
:1015F000026A036A2FD0336A341E351E361E331E2C
:10160000332A05E1342A03E1352A01E1362A32B0D2
:1016100015D732B256D732B48AD7B3D7EF50342663
:1016200005E3352A03E1362AD8B43080ED52EF5075
:10163000352603E3362AD8B43080ED52EF50EFBEA2
:1016400001D0800A3626D8B0308032B8FED632BA01
:101650003FD774D72BEF0DF029C030F02D50301A42
:1016600030AE05D0D894D89029BED8802FD029C0CC
:1016700030F02CC031F02850315E06E030AE26D07C
:10168000D850010AD86E22D02DC031F02950315ED9
:1016900006E030AE1BD0D850010AD86E17D02EC04D
:1016A00031F02A50315E06E030AE10D0D850010A39
:1016B000D86E0CD02FC031F02B50315E06E030AE2A
:1016C00005D0D850010AD86E01D0D890000C355002
:1016D000B608356E036A36C039F0368ED890363289
:1016E000373238320332023201320032352EF6D729
:1016F00039AE0BD0001E011E021E031E002AD8B4F4
:10170000012AD8B4022AD8B4032AEBEF0BF0006AFE
:10171000016A026A036A3D6A3E6A3F6A406A3C5057
:101720003B103A1039102CE0200E416ED89035361F
:101730003636373638363D363E363F3640363C5004
:10174000405C08E13B503F5C05E13A503E5C02E101
:1017500039503D5C0FE339503D5E3A50D8A03A3CD9
:101760003E5E3B50D8A03B3C3F5E3C50D8A03C3C4A
:10177000405ED8800036013602360336412ED6D779
:10178000EA6A3D0EE96E000CE9502D6E2C502F6E6A
:1017900019E02BC038F02AC037F029C036F028C035
:1017A00035F03C6A3B6A200E3A6E820E396EA5DD3A
:1017B00003C02BF002C02AF001C029F000C028F0BD
:1017C0002F2EE7D72BC038F02AC037F029C036F0CB
:1017D00028C035F07CD703C02BF002C02AF001C02E
:1017E00029F000C028F02BAE0DD02D062D8A281E22
:1017F000291E2A1E2B1E282AD8B4292AD8B42A2A00
:10180000D8B42B2A3B0E346E9A0E336ECA0E326E4B
:10181000316A0A0E2F6E2C50D8B42D2A2BC038F006
:101820002AC037F029C036F028C035F034C03CF06B
:1018300033C03BF032C03AF031C039F068DF0150BC
:10184000EFCF28F0ECCF29F0ECCF2AF0ECCF2BF043
:1018500000520FE12C282F5C0CE02D500CE00F0BF8
:101860002F5C01E03BE22DBE39D02DBC04D0200E10
:1018700030D0200E2D162DAA0DD02D9A2C50D8A484
:101880002D0600502D6E2D0E9EA8FED7AD6E2D504C
:10189000006E2D6A2C502F5C0BE100502D6E2E0E29
:1018A0009EA8FED7AD6E2D50006E200E2D16000E98
:1018B000300E2DAA0ED02D9A2C50D8A42D060050F3
:1018C0002D6E2D0E9EA8FED7AD6E2D50006E2D6A8A
:1018D000300E002600509EA8FED7AD6E34C038F002
:1018E00033C037F032C036F031C035F03C6A3B6A65
:1018F0003A6A0A0E396E0BDF03C034F002C033F0CF
:1019000001C032F000C031F02F2E88D761EF0DF00A
:10191000F86AD09E0D8EEA6AE96AB886E10EAF6E6B
:10192000040EB06EA60EAC6E900EAB6EC150C00B26
:101930000F09C16E070EB46E200E276E020E286EC0
:10194000960E296E18DC282EFBD7B70EB11693869B
:10195000BA6A050EBA6E1894B50ECD6EA080C00E90
:10196000F212948482B414D0020E286EFA0E296EFC
:1019700002DC282EFBD7286A28504FEC08F0282AD2
:10198000006E00509EA8FED7AD6E150E285CF4E1E7
:101990009EAA0CD09EAAFED7AECF27F0320E296E9B
:1019A000BBEC08F027509EA8FED7AD6E18B00CD047
:1019B00018B20AD0898A929A230E006E002EFED7A2
:1019C00000D0899A929A188218A08CD01EC02BF051
:1019D0001DC02AF01CC029F01BC028F0AE0E2F6ECF
:1019E000470E2E6E6B0E2D6E840E2C6ECFEF08F010
:1019F00003C022F002C021F001C020F000C01FF09F
:101A000022C038F021C037F020C036F01FC035F0BA
:101A1000C30E3C6EF50E3B6E280E3A6E7D0E396E8F
:101A20006CDC03C026F002C025F001C024F000C029
:101A300023F0D88222C02BF021C02AF020C029F048
:101A40001FC028F026C02FF025C02EF024C02DF096
:101A500023C02CF0CBD403C022F002C021F001C07F
:101A600020F000C01FF022C02BF021C02AF020C0BF
:101A700029F01FC028F02F6A2E6A480E2D6E870E9F
:101A80002C6EEADD01E228E12B6A2A6A296A800EBF
:101A9000286E22C02FF021C02EF020C02DF01FC0D4
:101AA0002CF0DADD01E218E1890EE96E22C02BF09C
:101AB00021C02AF020C029F01FC028F0020E2C6E91
:101AC00063D6286A285067EC08F0000905E0282A48
:101AD0009EA8FED7AD6EF6D718901E6A1D6A1C6AC6
:101AE0001B6A1892FA0E296EBBEC08F03AD7030075
:020000040030CA
:0E000000240E3E1E008281000FC00FE00F4054
:00000001FF
;PIC18F2550
